S01700004763634170706C69636174696F6E312E737265635B
S11300000C942A000C9478010C943C000C943C0051
S11300100C943C000C943C000C9425020C943C0081
S11300200C943C000C943C000C943C000C943C005C
S11300300C943C000C943C000C943C000C943C004C
S11300400C943C000C943C000C943C000C943C003C
S11300500C943C0011241FBECFE5D4E0DEBFCDBF1D
S113006020E0A0E6B0E001C01D92A936B207E1F796
S11300700E94F8010C9484020C940000613031F168
S113008038F0623009F440C0633009F45BC008956D
S1130090413061F44AB321E030E0B90102C0660F97
S11300A0771F8A95E2F7CB01842B0EC0411167C0FC
S11300B04AB321E030E0B90102C0660F771F8A9588
S11300C0E2F7CB01809584238ABB0895413061F423
S11300D047B321E030E0B90102C0660F771F8A956B
S11300E0E2F7CB01842B0EC0411149C047B321E094
S11300F030E0B90102C0660F771F8A95E2F7CB01A1
S11301008095842387BB0895413061F444B321E092
S113011030E0B90102C0660F771F8A95E2F7CB0180
S1130120842B0EC041112BC044B321E030E0B9014F
S113013002C0660F771F8A95E2F7CB01809584236E
S113014084BB0895413061F441B321E030E0B9014A
S113015002C0660F771F8A95E2F7CB01842B0EC08D
S113016041110DC041B321E030E0B90102C0660F76
S1130170771F8A95E2F7CB018095842381BB08958C
S1130180613031F138F0623009F440C0633009F471
S11301905BC00895413061F44BB321E030E0B90114
S11301A002C0660F771F8A95E2F7CB01842B0EC03D
S11301B0411167C04BB321E030E0B90102C0660FC2
S11301C0771F8A95E2F7CB01809584238BBB089532
S11301D0413061F448B321E030E0B90102C0660F58
S11301E0771F8A95E2F7CB01842B0EC0411149C0D9
S11301F048B321E030E0B90102C0660F771F8A9549
S1130200E2F7CB018095842388BB0895413061F4E3
S113021045B321E030E0B90102C0660F771F8A952B
S1130220E2F7CB01842B0EC041112BC045B321E072
S113023030E0B90102C0660F771F8A95E2F7CB015F
S11302408095842385BB0895413061F442B321E055
S113025030E0B90102C0660F771F8A95E2F7CB013F
S1130260842B0EC041110DC042B321E030E0B9012E
S113027002C0660F771F8A95E2F7CB01809584232D
S113028082BB0895813069F028F0823089F0833090
S1130290B1F00895613019F48FEF8BBB08951BBA48
S11302A00895613019F48FEF88BB089518BA089542
S11302B0613019F48FEF85BB089515BA0895613044
S11302C019F48FEF82BB089512BA0895F89485B794
S11302D08E7F85BF85B7826085BF8BB780648BBFF7
S11302E078940895809166008160809366000895F3
S11302F01F920F920FB60F9211248F938091660074
S11303008260809366008F910F900FBE0F901F90B4
S11303101895E0E6F0E010821182128213821482B2
S113032015820895E82FF0E0E05AFF4F9081953050
S113033021F410828F5F0C94A10180818F5F8083F0
S11303400895282F30E0F901E05AFF4F9081993049
S113035021F410828F5F0C949201843059F48081CF
S1130360833041F4D901AF59BF4F8C91823011F4DD
S11303700C94890180818F5F8083089580E00C94C0
S1130380A101CF93DF93C0E0D0E060E081E00E9460
S11303904201FE01E05AFF4F808185BB41E061E0EC
S11303A08C2F0E94C0002196C630D10571F7DF91D1
S11303B0CF910895CF93C0E041E061E08C2F0E947B
S11303C03E00CF5FC630C1F7C0E041E062E08C2F51
S11303D00E943E00CF5FC430C1F740E063E082E09A
S11303E00E943E0041E063E082E0CF910C94C000A3
S11303F00E94DA010E94660184E290E00E947C027D
S113040084E294EF0E947C0282E791E00E947F02E2
S11304100E9477020E9452020E94C10180916600EC
S113042080FF07C00E94BE01809166008E7F80938A
S113043066008091660081FFEFCF0E948901809160
S113044066008D7F80936600E7CF1F920F920FB6F0
S11304500F9211242F933F934F935F936F937F9346
S11304608F939F93AF93BF93EF93FF938091670014
S113047090916800892B29F0E0916700F091680061
S11304800995FF91EF91BF91AF919F918F917F91CA
S11304906F915F914F913F912F910F900FBE0F90ED
S11304A01F9018958FB58F7B8FBD8FB58F778FBDBC
S11304B08FB58F7E8FBD8FB58F7D8FBD8FB58E7FAE
S11304C08FBD8FB58D7F8FBD8EB588608EBD8EB587
S11304D08F7E8EBD8EB58E7F8EBD8EB58D7F8EBD8B
S11304E08EB584608EBD80B7816080BF089589B762
S11304F0806189BF789408959BBD8ABD08959093C7
S10F05006800809367000895F894FFCF12
S9030000FC
